S01800004763634170706C69636174696F6E38342E737265631F
S11300000C9430010C94200C0C94470C0C94580163
S11300100C9458010C9458010C9458010C94180A2F
S11300200C9458010C9458010C9458010C94BB097D
S11300300C9458010C9458010C9458010C945801D8
S11300400C94740D0C9458010C94AF020C94E702B8
S11300500C9458010C9458010C9458010C945801B8
S11300600C94DB0A0C945801E70BEB0BEB0BEB0B3A
S1130070EB0BEB0BEB0BEB0BFB0AEB0BEB0BEB0BBD
S1130080EB0BEB0BEB0BEB0BFB0AEB0BEB0BEB0BAD
S1130090EB0BEB0BEB0BEB0B030BEB0BEB0BEB0B94
S11300A0EB0BEB0BEB0BEB0B290BEB0BEB0BEB0B5E
S11300B0EB0BEB0BEB0BEB0B030BEB0BEB0BEB0B74
S11300C0EB0BEB0BEB0BEB0B2F0BEB0BEB0BEB0B38
S11300D0EB0BEB0BEB0BEB0B350BEB0BEB0BEB0B22
S11300E0EB0BEB0BEB0BEB0B470BEB0BEB0BEB0B00
S11300F0EB0BEB0BEB0BEB0B710BEB0BEB0BEB0BC6
S1130100EB0BEB0BEB0BEB0B3B0BEB0BEB0BEB0BEB
S1130110EB0BEB0BEB0BEB0B550BEB0BEB0BEB0BC1
S1130120EB0BEB0BEB0BEB0B740BEB0BEB0BEB0B92
S1130130EB0BEB0BEB0BEB0B740BEB0BEB0BEB0B82
S1130140EB0BEB0BEB0BEB0B740BEB0BEB0BEB0B72
S1130150EB0BEB0BEB0BEB0B740BEB0BEB0BEB0B62
S1130160EB0BEB0BEB0BEB0B7D0BEB0BEB0BEB0B49
S1130170EB0BEB0BEB0BEB0BAE0BEB0BEB0BEB0B08
S1130180EB0BEB0BEB0BEB0B7D0BEB0BEB0BEB0B29
S1130190EB0BEB0BEB0BEB0BAE0BEB0BEB0BEB0BE8
S11301A0EB0BEB0BEB0BEB0B950BEB0BEB0BEB0BF1
S11301B0EB0BEB0BEB0BEB0BB20BEB0BEB0BEB0BC4
S11301C0EB0BEB0BEB0BEB0BB20BEB0BEB0BEB0BB4
S11301D0EB0BEB0BEB0BEB0BC70BEB0BEB0BEB0B8F
S11301E0EB0BEB0BEB0BEB0BE10BEB0BEB0BEB0B65
S11301F0EB0BEB0BEB0BEB0BE10B0200000008002D
S113020002010000030407000000000000000001D8
S11302100204081020408001020408102001020496
S11302200810200404040404040404020202020268
S11302300203030303030300000000230026002934
S11302400000000000250028002B0000000000240E
S11302500027002A00001703860310056F0D6505AB
S113026011241FBECFEFD8E0DEBFCDBF11E0A0E068
S1130270B1E0E0E4FCE202C005900D92A837B107BA
S1130280D9F723E0A8E7B1E001C01D92AF35B2076A
S1130290E1F711E0CFE2D1E004C02197FE010E9412
S11302A03C11CB32D107C9F70E9401050C941316F7
S11302B00C940000FC01918D228D892F90E0805CCC
S11302C09F4F821B91098F7399270895FC01918D8B
S11302D0828D981731F0828DE80FF11D858D90E0A5
S11302E008958FEF9FEF0895FC01918D828D9817EB
S11302F061F0828DDF01A80FB11D5D968C91928D06
S11303009F5F9F73928F90E008958FEF9FEF089502
S1130310FC01238D348D231738F08FE390E0821B8A
S11303209109830F911D0895832F90E0821B9109F9
S1130330019708958DE093E0892B49F080E090E0E7
S1130340892B29F00E940D0381110E940000089559
S1130350FC01848DDF01A80FB11DA35ABF4F8C91FE
S1130360248D30E02F5F3F4F2F733078332334F4E4
S113037021503109206C3F6F2F5F3F4F248FA68996
S1130380B7898C93A089B1898C9180648C93938D67
S1130390848D981306C00288F389E02D80818F7DB7
S11303A080830895CF93DF93EC01888D81110FC072
S11303B018C00FB607FC0DC0908195FF0AC0A8892C
S11303C0B9898C9185FF05C0CE010E94A801EA89F4
S11303D0FB89908195FDEDCFA889B9898C9186FF21
S11303E0E8CFDF91CF9108950F931F93CF93DF93BD
S11303F0FC0181E0808F938D848D981322C0A089A5
S1130400B1898C9185FD2FC01CC00FB607FC08C0B4
S1130410E889F989808185FF03C0CE010E94A80183
S11304209C8D091791F38B8DFE01E80FF11DE35AA2
S1130430FF4F10830B8FEA89FB8980818062808360
S11304401BC0238D30E02F5F3F4F2F733078332351
S113045034F421503109206C3F6F2F5F3F4F162F2A
S1130460EF01022FDDCFA689B7896C930088F1894B
S1130470E02D80818064808381E090E0DF91CF91E2
S11304801F910F910895BF92CF92DF92EF92FF9246
S11304900F931F93CF93DF93EC016A017B01B22E7C
S11304A0E889F98982E080834115514E610571051F
S11304B0B1F060E079E08DE390E0A70196010E943D
S11304C01A1189019A01015011092109310936953E
S11304D0279517950795011580E11807A8F0E88975
S11304E0F989108260E874E88EE190E0A701960132
S11304F00E941A11DA01C9010197A109B109B6953F
S1130500A795979587958C01EC85FD851083EE85DD
S1130510FF850083188EEC89FD89B082EA89FB8906
S1130520808180618083EA89FB89808188608083FF
S1130530EA89FB89808180688083EA89FB898081DC
S11305408F7D8083DF91CF911F910F91FF90EF906A
S1130550DF90CF90BF90089580E090E008951F92BF
S11305600F920FB60F9211242F938F939F93AF93F3
S1130570BF93EF93FF93E0918801F091890180810B
S113058082FD14C0E8E7F1E0A689B7892C91818D3A
S11305908F5F8F73928D891771F0DF01E18DF0E029
S11305A0E858FE4F258F59968C9305C0E0918E0133
S11305B0F0918F018081FF91EF91BF91AF919F9155
S11305C08F912F910F900FBE0F901F9018951F922F
S11305D00F920FB60F9211242F933F934F935F9373
S11305E06F937F938F939F93AF93BF93EF93FF93F7
S11305F088E791E00E94A801FF91EF91BF91AF912C
S11306009F918F917F916F915F914F913F912F9126
S11306100F900FBE0F901F90189588E791E00E94ED
S11306205A0121E0892B09F420E0822F0895E8E79C
S1130630F1E01382128288EE93E0A0E0B0E08483BC
S11306409583A683B78389E291E09183808385ECC7
S113065090E09587848784EC90E09787868780EC88
S113066090E0918B808B81EC90E0938B828B82EC79
S113067090E0958B848B86EC90E0978B868B118E23
S1130680128E138E148E08958F929F92AF92BF9202
S1130690CF92DF92EF92FF920F931F93CF93DF934A
S11306A05C017B014C0182E0880E911C6501E5E050
S11306B0CE0ED11C00E010E0F40161914F014AE03C
S11306C050E0C7010E944E08EC016EE2C7010E948F
S11306D071078C0F9D1F080F191F8C149D0461F75F
S11306E04AE050E0F5016581C7010E944E08800F81
S11306F0911FDF91CF911F910F91FF90EF90DF90A9
S1130700CF90BF90AF909F908F900895E5E1F2E075
S11307108BE391E091838083128213821482158289
S1130720089580911C0290911D0290931F02809362
S11307301E0210921D0210921C02089580911C0248
S113074090911D02019690931D0280931C020895BE
S113075080911B02882361F0E091FD02F091FE027A
S11307600190F081E02D609106018DEF92E00995F2
S113077008950F931F93CF93DF93CDB7DEB7689798
S11307800FB6F894DEBF0FBECDBF4AE06DEF72E046
S1130790CE0143960E948608CE0143960E94E6103D
S11307A06AE0CE0143960E9476109C0140E050E03E
S11307B0BE016D5E7F4FCE010D960E94A0106DE3C9
S11307C071E0CE0101960E94A90FBE016F5F7F4FB9
S11307D0CE0143960E949B108C01CE0101960E948B
S11307E0360F2F89388DA8014E5F5F4FBE016D5EB5
S11307F07F4FCE0107960E94A010CE0107960E945B
S11308000E1170937B0260937A0281E080931B0245
S1130810CE0107960E94360FCE010D960E94360F28
S1130820CE0143960E94360F68960FB6F894DEBF49
S11308300FBECDBFDF91CF911F910F9108950F93FC
S11308401F93CF9361E088E00E949D0E60E088E0F2
S11308500E94DC0E01E010E062E0C8E0C00F8C2FC3
S11308600E949D0E8C2F0E940D0F892B21F4109352
S11308700701009306010F5F1F4F0530110561F753
S113088060E471E088E791E00E945B0760910601F3
S1130890709107014AE050E088E791E00E9428083F
S11308A062E088E00E949D0E80910601909107010C
S11308B0CF911F910F9108950895CF93DF9300D0A6
S11308C000D000D0CDB7DEB726E040E855E260E0C6
S11308D070E088E791E00E94430269E571E088E7EF
S11308E091E00E945B070E941F04609106017091D1
S11308F007018DEF92E00E94620D69EB73E08DEFCA
S113090092E00E94650D68EA73E08DEF92E00E9428
S11309106A0D62E082E00E949D0E42E050E06EE9C2
S113092073E080E00E94FD0B6FE471E0CE0101965C
S11309300E94A90F42E350E0BE016F5F7F4F80E247
S113094092E00E944509CE0101960E94360F61E9AA
S113095073E080E292E00E94B30961E085E00E94C6
S11309609D0E6FE770E085E00E94050E61E086E071
S11309700E949D0E60E086E00E94DC0E26960FB673
S1130980F894DEBF0FBECDBFDF91CF910895609183
S11309907A0270917B02161617064CF485E00E94C9
S11309A0050E60E070E086E00E94050E0FC060E076
S11309B070E085E00E94050E60917A0270917B02DE
S11309C071956195710986E00E94050E609106019A
S11309D0709107014AE050E088E791E00E94200806
S11309E063E571E088E791E00E945B0760917A0219
S11309F070917B024AE050E088E791E00E94280869
S1130A0008950E94CA0D0E945C040E945D04CAE914
S1130A10D1E00E94C7042097E1F30E949A01F9CF24
S1130A20AF92BF92CF92DF92EF92FF920F931F93F8
S1130A3069E571E084E792E00E94A90F69E571E03D
S1130A408EE692E00E94A90F69E571E088E692E0E3
S1130A500E94A90FA0900C01B0900D01C0900E014E
S1130A60D0900F01E0901001F0901101009112015B
S1130A70109113011F921F9280910B018F9380910B
S1130A800A018F93809109018F93809108018F93BC
S1130A9024E832E04CE752E060E872E08CE292E055
S1130AA00E94FA0680E292E00E9430090F900F90B3
S1130AB00F900F900F900F901F910F91FF90EF9058
S1130AC0DF90CF90BF90AF90089580E292E00E94B3
S1130AD0B80988E692E00E94360F8EE692E00E9402
S1130AE0360F84E792E00E94360F08952F923F92CA
S1130AF04F925F926F927F928F929F92AF92BF922A
S1130B00CF92DF92EF92FF920F931F93CF93DF93D5
S1130B10CDB7DEB728970FB6F894DEBF0FBECDBFB2
S1130B201C012A013B0109831A832B833C8320E0A7
S1130B3030E0A901C301B2010E94C51188230CF45D
S1130B4093C020E030E0A90169817A818B819C8186
S1130B500E94C51188230CF487C020E030E0A9016D
S1130B60C701B6010E94C51188230CF47DC0D101D0
S1130B705B96BC92AE925A9781E0AA94AB2809F096
S1130B8080E0F10183AF4082518262827382898165
S1130B909A81AB81BC8184839583A683B783C08605
S1130BA0D186E286F38666A577A580A991A90E94DD
S1130BB03C1220E030E04AE754E40E94CA116D83FD
S1130BC07E838F839887F10144865586668677866F
S1130BD09B01AC0169817A818B819C810E94EE1218
S1130BE04B015C01D10150966D937D938D939C9341
S1130BF053972D813E814F815885C701B6010E94CC
S1130C00CA116B017C01F101648B758B868B978B08
S1130C10808D918D019741F5A301920160E070E010
S1130C20CB010E945811D1011C966D937D938D9335
S1130C309C931F97A501940160E070E0CB010E9492
S1130C405811F101608B718B828B938BA7019601F4
S1130C5060E070E0CB010E945811D10154966D936D
S1130C607D938D939C93579728960FB6F894DEBF87
S1130C700FBECDBFDF91CF911F910F91FF90EF90E9
S1130C80DF90CF90BF90AF909F908F907F906F90A8
S1130C905F904F903F902F9008950F931F93CF93A1
S1130CA0DF93EC018B018AAD882361F1888D998DE6
S1130CB08617970739F12C853D854E855F8560E061
S1130CC070E0CB010E9458116C877D878E879F87C7
S1130CD0288939894A895B8960E070E0CB010E94E8
S1130CE05811688B798B8A8B9B8B2C893D894E8913
S1130CF05F8960E070E0CB010E9458116C8B7D8BA2
S1130D008E8B9F8B198F088FDF91CF911F910F913D
S1130D1008954F925F926F927F928F929F92AF92BB
S1130D20BF92CF92DF92EF92FF920F931F93CF93D4
S1130D30DF9300D000D0CDB7DEB74C0127013801D6
S1130D40A982BA82CB82DC82FC01578F468F758FD1
S1130D50648F31A320A312AE12AA13AA14AA15AA4F
S1130D6080E090E0AFE7B3E486AB97ABA0AFB1AF60
S1130D7084E690E0A0E0B0E086A797A7A0ABB1AB73
S1130D806D8D7E8DC4010E944D06AB8CBC8CCF88CA
S1130D90D88CE98CFA8C09811A812B813C81B301AE
S1130DA0A201C4010E9476050E94BE0DF40146A46E
S1130DB057A460A871A8DC01CB0184199509A60980
S1130DC0B70982A393A3A4A3B5A30F900F900F9088
S1130DD00F90DF91CF911F910F91FF90EF90DF90D3
S1130DE0CF90BF90AF909F908F907F906F905F90C7
S1130DF04F9008958F929F92AF92BF92CF92DF92BD
S1130E00EF92FF920F931F93CF93DF93CDB7DEB78B
S1130E10EF85F889A989BA899B888C888F929F92DB
S1130E201F92992493949F92BF93AF93FF93EF9350
S1130E300E9489060FB6F894DEBF0FBECDBFDF91C6
S1130E40CF911F910F91FF90EF90DF90CF90BF90C3
S1130E50AF909F908F900895CF92DF92EF92FF9280
S1130E600F931F93CF93DF9341155105C1F06A018E
S1130E708C01E62EF72EC0E0D0E0D7016D917D0104
S1130E80D801ED91FC910190F081E02DC801099504
S1130E90892B39F02196CC16DD0679F702C0C0E023
S1130EA0D0E0CE01DF91CF911F910F91FF90EF9091
S1130EB0DF90CF9008956115710581F0FB010190D9
S1130EC00020E9F73197AF01461B570BDC01ED9188
S1130ED0FC910280F381E02D0995089580E090E073
S1130EE00895DC01ED91FC910190F081E02D0995CC
S1130EF00895DC01ED91FC910280F381E02D42E044
S1130F0050E067E571E0099508958F929F92AF9242
S1130F10BF92EF92FF920F931F93CF93DF93CDB7BE
S1130F20DEB7A1970FB6F894DEBF0FBECDBF7C012C
S1130F30CB01BA0119A2223008F42AE08E010F5D18
S1130F401F4F822E912CA12CB12CA50194010E943B
S1130F501A11E62F622F732F842F952F0150110938
S1130F60EA3010F4E05D01C0E95CD801EC9361154E
S1130F7071058105910549F70115110591F0F801F5
S1130F8001900020E9F73197AF01401B510BD701C5
S1130F90ED91FC910280F381E02DB801C701099520
S1130FA002C080E090E0A1960FB6F894DEBF0FBEB9
S1130FB0CDBFDF91CF911F910F91FF90EF90BF9024
S1130FC0AF909F908F900895CF92DF92EF92FF920F
S1130FD00F931F93CF93DF93EC016A017B012115DB
S1130FE0310541F4E881F9810190F081E02D642F0D
S1130FF009951DC02A303105C1F4772394F46DE2BC
S11310000E9471078C0144275527BA014C195D09C8
S11310106E097F092AE0CE010E948507800F911F87
S113102006C02AE00E94850702C00E948507DF915E
S1131030CF911F910F91FF90EF90DF90CF90089583
S11310409A01AB01770F660B770B0E94E4070895B2
S11310500F931F93CF93DF93EC019A01AB01770FAA
S1131060660B770B0E94E4078C01CE010E9479077E
S1131070800F911FDF91CF911F910F91089521153A
S1131080310549F4DC01ED91FC910190F081E02DF2
S1131090642F099508950E94850708959A01462FA3
S11310A050E060E070E00E943F0808950F931F93A2
S11310B0CF93DF93EC010E94BE0D688779878A87FE
S11310C09B87E881F9810284F385E02DCE0109959F
S11310D09923BCF40E94BE0D088519852A853B8599
S11310E0DC01CB01801B910BA20BB30B0C811D8186
S11310F02E813F8180179107A207B30710F38FEF6A
S11311009FEFDF91CF911F910F910895EF92FF927E
S11311100F931F93CF93DF938C017B01C42F69E559
S113112071E00E94A90FC7010E945608992384F018
S1131130D0E08C179D0761F0682FC8010E941C1035
S1131140C7010E94560899231CF08C179D07A1F72C
S1131150C801DF91CF911F910F91FF90EF900895F7
S113116008954F925F926F927F92AF92BF92CF9207
S1131170DF92EF92FF920F931F93CF93DF93CDB73C
S1131180DEB72A970FB6F894DEBF0FBECDBF5C0161
S11311906B018AE0EBE1F1E0DE01119601900D9222
S11311A08A95E1F769817A81CB01770FAA0BBB0B92
S11311B07727662720E83EE340E050E00E941A11BA
S11311C0F50131872087C216D30664F17E01F3E06E
S11311D0EF0EF11C01E010E00F2EF0E84F2EFEE3BD
S11311E05F2E612C712CF02DF701619171917F01BB
S11311F0CB01770FAA0BBB0B77276627A3019201BC
S11312000E941A11C216D30624F4F50131872087EF
S11312100BC00F5F1F4F0530110531F7F501318702
S1131220208702C000E010E0000F111FFE01E00F54
S1131230F11F818192812A960FB6F894DEBF0FBE0A
S1131240CDBFDF91CF911F910F91FF90EF90DF9071
S1131250CF90BF90AF907F906F905F904F90089524
S1131260CF93DF93EC0169E571E00E94A90F81E05F
S113127090E09F838E83198618861B861A868FB703
S113128080688FBFDF91CF910895EF92FF920F9303
S11312901F93CF93DF93EC018B017A010E94BE0F61
S11312A0B701CE010E94B1089F838E83C8010E94BA
S11312B0FA106FE471E0C8010E942F10882309F42A
S11312C04BC010928000E1E8F0E0108288E0808357
S11312D08E819F81019719F48081816080838E8142
S11312E09F81089729F4E1E8F0E08081826080839F
S11312F08E819F818034910529F4E1E8F0E08081BA
S1131300836080838E819F818115914029F4E1E877
S1131310F0E08081846080838E819F818115944078
S113132029F4E1E8F0E080818560808320E83EE3F1
S1131330D7010E9442112E813F81032E000C440BE1
S1131340550B0E941A113B872A87309389002093FA
S1131350880082E080936F00DF91CF911F910F91FD
S1131360FF90EF9008957093150160931401089510
S11313700E94360F08951F920F920FB60F921124F8
S11313802F933F934F935F936F937F938F939F9389
S1131390AF93BF93EF93FF93E0911401F091150184
S11313A00995FF91EF91BF91AF919F918F917F919B
S11313B06F915F914F913F912F910F900FBE0F90BE
S11313C01F901895813039F018F0823051F008954B
S11313D010926E000895EFE6F0E080818D7F8083A7
S11313E00895E0E7F0E080818D7F808381E0809341
S11313F0B000E1EBF0E08081887F8460808310920C
S1131400B3000895CF93C82F809116018C1307C0A1
S1131410EAEFF1E084919FEF9093160101C08FEF02
S11314200E94E20960E08C2F0E94DC0ECF910895A7
S11314301F920F920FB60F9211242F933F934F9345
S11314405F936F937F938F939F93AF93BF93EF9328
S1131450FF9380918B0290918C02A0918D02B091A8
S11314608E02892B8A2B8B2B51F180918802E0917B
S11314708902F0918A0290818927808380918B026E
S113148090918C02A0918D02B0918E0218161906CB
S11314901A061B06C4F480918B0290918C02A091D1
S11314A08D02B0918E020197A109B10980938B023C
S11314B090938C02A0938D02B0938E0204C080910D
S11314C016010E94020AFF91EF91BF91AF919F9183
S11314D08F917F916F915F914F913F912F910F90D9
S11314E00FBE0F901F9018951092FC0281E080931C
S11314F0FA021092F90261E082E10E94DC0E61E0DE
S113150083E10E94DC0EE9EBF0E080818E7F808332
S113151080818D7F808388E48093B80085E4809304
S1131520BC000895880F8093BA0008954091B102D9
S1131530262F30E0240F311D21323105ECF42091A7
S1131540FC022430D9F4662381F0A82FB92F80E05F
S113155090E03091B1022D91FC01ED54FD4FE30F69
S1131560F11D208301968617A0F38091B102680FC4
S11315706093B10280E0089581E0089582E00895C7
S11315809093F6028093F50208959093F802809365
S1131590F702089585ED8093BC00ECEBF0E08081C8
S11315A084FDFDCF1092FC02089585EC8093BC006D
S11315B01092FC0208951F920F920FB60F921124FD
S11315C02F933F934F935F936F937F938F939F9347
S11315D0AF93BF93EF93FF938091B900E82FE87F17
S11315E08E2F90E0893C910508F0F5C0FC01EC5C7D
S11315F0FF4F0C943C118091FB028093BB0085EC5F
S11316008093BC00E8C09091D4028091D3029817D3
S113161080F4E091D40281E08E0F8093D402F0E054
S1131620EB52FD4F80818093BB0085EC8093BC001E
S1131630D2C08091FA02882319F00E94CA0ACBC052
S113164081E08093F90284EA8093BC001092FC024A
S1131650C2C080E280938F020E94CA0ABCC080E3A9
S113166080938F020E94CA0AB6C088E380938F02D7
S11316700E94D50AB0C0E091D40281E08E0F80931D
S1131680D4028091BB00F0E0EB52FD4F8083909137
S1131690D4028091D302981720F485EC8093BC0087
S11316A09AC085E88093BC0096C0E091D40281E0A2
S11316B08E0F8093D4028091BB00F0E0EB52FD4F7B
S11316C080838091FA02882319F00E94CA0A83C099
S11316D081E08093F90284EA8093BC001092FC02BA
S11316E07AC00E94CA0A77C083E08093FC021092F9
S11316F0900285EC8093BC006EC080919002803291
S113170080F4E091900281E08E0F809390028091AA
S1131710BB00F0E0EF56FD4F808385EC8093BC0066
S11317205AC085E88093BC0056C00E94D50A8091B7
S11317309002803230F4E0919002F0E0EF56FD4FD9
S113174010826091900270E0E091F502F091F6024F
S113175081E992E00995109290023DC085E880935A
S1131760BC0039C084E08093FC021092B202109253
S1131770B102E091F702F091F80209958091B1026B
S1131780811105C081E08093B1021092B302E0910F
S1131790B20281E08E0F8093B202F0E0ED54FD4F6F
S11317A080818093BB009091B2028091B10298171E
S11317B020F485EC8093BC000EC085E88093BC00C7
S11317C00AC085EC8093BC001092FC0204C0109205
S11317D08F020E94CA0AFF91EF91BF91AF919F912E
S11317E08F917F916F915F914F913F912F910F90C6
S11317F00FBE0F901F9018950895823000F5E82FC2
S1131800F0E0EE0FFF1FE95EFE4F718360838823D3
S113181019F0813049F00895E9E6F0E080818C7F89
S1131820482B4083E89A0895E9E6F0E08081440F6C
S1131830551F440F551F837F482B4083E99A089511
S11318401F920F920FB60F9211242F933F934F9331
S11318505F936F937F938F939F93AF93BF93EF9314
S1131860FF93E0911701F09118010995FF91EF9111
S1131870BF91AF919F918F917F916F915F914F91A4
S11318803F912F910F900FBE0F901F9018951F92AC
S11318900F920FB60F9211242F933F934F935F93A0
S11318A06F937F938F939F93AF93BF93EF93FF9324
S11318B0E0911901F0911A010995FF91EF91BF91FF
S11318C0AF919F918F917F916F915F914F913F91D4
S11318D02F910F900FBE0F901F9018958091300399
S11318E090E020913103821B910908959091310376
S11318F080913003981750F4E92FF0E0EE5CFC4F30
S1131900208130E09F5F9093310302C02FEF3FEFBF
S1131910C9010895E091310380913003E81730F450
S1131920F0E0EE5CFC4F808190E008958FEF9FEF34
S113193008950895CF93DF93EC01E0910903F091AA
S11319400A03309701F19091310380913003981785
S1131950D0F0161617068CF420E030E090E0DE019B
S1131960A90FB11D4C91D901AE5CBC4F4C939F5F44
S1131970292F30E02617370794F310923103609330
S11319803003CB010995DF91CF910895E0910B03CA
S1131990F0910C03309729F010920F0310920E036C
S11319A009950895CF92DF92EF92FF920F931F93C0
S11319B0CF93DF938C01CB016A0120910D03222385
S11319C0A1F041155105A1F0EB017B01E40EF51ED8
S11319D06991D801ED91FC910190F081E02DC8014D
S11319E00995CE15DF05A1F703C0642F0E94960A5E
S11319F0C601DF91CF911F910F91FF90EF90DF907F
S1131A00CF900895CF93DF931F92CDB7DEB7FC013B
S1131A10698390910D039923D9F090910E0390322C
S1131A2038F081E090E09383828380E090E017C0F7
S1131A3080910F03E82FF0E0E05FFC4F99819083E1
S1131A408F5F80930F0380930E0381E090E007C0C3
S1131A5061E0CE0101960E94960A81E090E00F9029
S1131A60DF91CF910895FC011382128288EE93E0F6
S1131A70A0E0B0E084839583A683B7838AE691E0EF
S1131A809183808308951092310310923003109251
S1131A900F0310920E030E94740A0895CF93DF93EC
S1131AA0EC01862F0E94920A86EC9CE00E94C50AF3
S1131AB08AE99CE00E94C00ACE010E94430DDF9196
S1131AC0CF9108950E944E0D089570930A03609378
S1131AD00903089570930C0360930B0308958DEF2D
S1131AE092E00E94330D08951F920F920FB60F9249
S1131AF011242F933F938F939F93AF93BF93809120
S1131B00530390915403A0915503B091560330911F
S1131B10520323E0230F2D3720F40196A11DB11D9C
S1131B2005C026E8230F0296A11DB11D2093520380
S1131B308093530390935403A0935503B093560397
S1131B408091570390915803A0915903B0915A037F
S1131B500196A11DB11D8093570390935803A09340
S1131B605903B0935A03BF91AF919F918F913F91C5
S1131B702F910F900FBE0F901F9018952FB7F894C8
S1131B8060915303709154038091550390915603CF
S1131B902FBF0895789484B5826084BD84B5816034
S1131BA084BD85B5826085BD85B5816085BDEEE661
S1131BB0F0E0808181608083E1E8F0E01082808140
S1131BC082608083808181608083E0E8F0E08081AE
S1131BD081608083E1EBF0E0808184608083E0EBCE
S1131BE0F0E0808181608083EAE7F0E080818460B6
S1131BF08083808182608083808181608083808112
S1131C00806880831092C10008951F93CF93DF935F
S1131C10182FEB0161E00E949D0E209729F460E0EB
S1131C20812F0E94DC0E56C0CF3FD10529F461E01C
S1131C30812F0E94DC0E4EC0E12FF0E0E550FE4FF4
S1131C40E491E330B9F028F4E13051F0E23069F086
S1131C5035C0E73019F1E83049F1E43079F514C0C2
S1131C6084B5806884BDC7BD35C084B5806284BD39
S1131C70C8BD30C0E0E8F0E0808180688083D09304
S1131C808900C093880026C0E0E8F0E0808180628B
S1131C908083D0938B00C0938A001CC0E0EBF0E0FB
S1131CA0808180688083C093B30014C0E0EBF0E0CF
S1131CB0808180628083C093B4000CC0C038D10599
S1131CC02CF460E0812F0E94DC0E04C061E0812FBF
S1131CD00E94DC0EDF91CF911F910895833069F04B
S1131CE028F48130B1F08230C1F008958730C9F012
S1131CF08830E9F0843001F506C0E0E8F0E0808146
S1131D008F7780830895E0E8F0E080818F7D808381
S1131D10089584B58F7784BD089584B58F7D84BD7F
S1131D200895E0EBF0E080818F7780830895E0EB05
S1131D30F0E080818F7D80830895CF93DF9390E0DE
S1131D40FC01E15FFD4F2491FC01ED5DFD4F8491A9
S1131D50882379F190E0880F991FFC01E55BFD4F22
S1131D60A591B491FC01EF5BFD4FC591D491611134
S1131D700CC09FB7F8948C91E22FE0958E238C933E
S1131D802881E223E8839FBF14C0623061F49FB7C7
S1131D90F8943C91822F809583238C93E881E22BE5
S1131DA0E8839FBF06C08FB7F894EC91E22BEC93C5
S1131DB08FBFDF91CF9108951F93CF93DF93282F87
S1131DC030E0F901E550FE4F8491F901E15FFD4FE8
S1131DD01491F901ED5DFD4FC491CC23D1F0D62FC0
S1131DE081110E946E0EEC2FF0E0EE0FFF1FEF5BEF
S1131DF0FD4FA591B4918FB7F894D11106C09C9171
S1131E00E12FE095E923EC9303C0EC91E12BEC93F3
S1131E108FBFDF91CF911F910895CF93DF93282F28
S1131E2030E0F901E550FE4F8491F901E15FFD4F87
S1131E30D491F901ED5DFD4FC491CC2391F0811152
S1131E400E946E0EEC2FF0E0EE0FFF1FE95CFD4FD9
S1131E50A591B491EC91ED2381E090E021F480E030
S1131E6002C080E090E0DF91CF910895FC01808171
S1131E7091810E94F0130895CF93DF93EC01888140
S1131E809981009711F00E94F013198218821D8223
S1131E901C821B821A82DF91CF9108950F931F93A6
S1131EA0CF93DF93EC018B016F5F7F4F8881998122
S1131EB00E948814009731F0998388831B830A83D6
S1131EC081E001C080E0DF91CF911F910F910895CF
S1131ED0CF93DF93FC0120813181232B29F02281D0
S1131EE033812617370770F4EC010E944E0F8823C4
S1131EF061F08C819D81892B39F4E881F98110820C
S1131F0081E003C081E001C081E0DF91CF910895B9
S1131F10EF92FF920F931F93CF93DF93EC017B011A
S1131F208A01BA010E94680F811104C0CE010E9487
S1131F303C0F07C01D830C83B701888199810E94DF
S1131F40A615CE01DF91CF911F910F91FF90EF90D5
S1131F500895FC0111821082138212821582148268
S1131F606115710551F0FB0101900020E9F73197EB
S1131F70AF01461B570B0E94880F0895CF93DF9340
S1131F80EC01FB018617970761F06081718161158F
S1131F90710529F0448155810E94880F02C00E9476
S1131FA03C0FCE01DF91CF910895CF93DF93EC01E5
S1131FB06115710559F0FB0101900020E9F7319793
S1131FC0AF01461B570B0E94880F02C00E943C0FB2
S1131FD0CE01DF91CF910895EF92FF920F931F935B
S1131FE0CF93DF93FC012481358161157105D1F014
S1131FF041155105C9F08B01EC017A01E20EF31E83
S1132000B7010E94680F882381F0288139818C816F
S11320109D81B801820F931F0E94A615FD82EC8258
S113202081E003C080E001C081E0DF91CF911F9186
S11320300F91FF90EF900895CF93DF9300D0CDB729
S1132040DEB769831A8241E050E0BE016F5F7F4FC3
S11320500E94EC0F0F900F90DF91CF910895DC0157
S113206014962D913C911597232B61F461157105FC
S113207039F021E0FB0180818823C9F020E017C0FA
S113208021E015C06115710549F4DC01ED91FC9165
S113209021E08081882359F020E009C0FC0180817F
S11320A091810E949D1521E0892B09F020E0822F67
S11320B00895CF93DF93FC012481358142175307A0
S11320C068F4C081D18170E0CE01840F951F0E9415
S11320D09215009731F08C1B9D0B05C08FEF9FEF7D
S11320E002C08FEF9FEFDF91CF91089540E050E061
S11320F00E9459100895CF93DF93FC012481358108
S11321004217530780F4FB01DC01CD91DC9160811F
S11321107181CE01840F951F0E94AD15009731F097
S11321208C1B9D0B05C08FEF9FEF02C08FEF9FEFBD
S1132130DF91CF91089540E050E00E947B10089514
S1132140BF92CF92DF92EF92FF920F931F93CF93A0
S1132150DF937C016B018A01E9012417350720F420
S1132160812F8901C42FD82F69E571E0C7010E942E
S1132170A90FD60114968D919C91159708171907EC
S1132180D0F48C179D0708F4EC01D601ED91FC9175
S11321901197EC0FFD1FB08010824D915C91BA0134
S11321A0600F711FC7010E94D50FF60180819181D4
S11321B0C80FD91FB882C701DF91CF911F910F912A
S11321C0FF90EF90DF90CF90BF900895CF93DF936F
S11321D0FC01C081D181209751F08881882339F096
S11321E090E00E947915899388818111F9CFDF915C
S11321F0CF910895CF93DF93FC01C081D1812097C3
S113220051F08881882339F090E00E9481158993E8
S113221088818111F9CFDF91CF910895FC018081EC
S11322209181009719F00E945215089560E070E0C2
S1132230CB010895A1E21A2EAA1BBB1BFD010DC000
S1132240AA1FBB1FEE1FFF1FA217B307E407F50762
S113225020F0A21BB30BE40BF50B661F771F881F3E
S1132260991F1A9469F760957095809590959B01D4
S1132270AC01BD01CF010895EE0FFF1F0590F4914D
S1132280E02D09940E944911B7FF0895821B930B16
S11322900895A29FB001B39FC001A39F700D811D3B
S11322A01124911DB29F700D811D1124911D08955B
S11322B05058BB27AA270E9470110C94B4120E9494
S11322C0A61238F00E94AD1220F039F49F3F19F4A1
S11322D026F40C94A3120EF4E095E7FB0C949D12E3
S11322E0E92F0E94C51258F3BA17620773078407CF
S11322F0950720F079F4A6F50C94E7120EF4E09516
S11323000B2EBA2FA02D0B01B90190010C01CA01AB
S1132310A0011124FF27591B99F0593F50F4503E56
S113232068F11A16F040A22F232F342F4427585F48
S1132330F3CF469537952795A795F0405395C9F760
S11323407EF41F16BA0B620B730B840BBAF0915018
S1132350A1F0FF0FBB1F661F771F881FC2F70EC0B7
S1132360BA0F621F731F841F48F48795779567958A
S1132370B795F7959E3F08F0B0CF9395880F08F076
S11323809927EE0F9795879508950E94791208F47E
S113239081E008950E94DE110C94B4120E94AD12E3
S11323A058F00E94A61240F029F45F3F29F00C94E3
S11323B09D1251110C94E8120C94A3120E94C512A0
S11323C068F39923B1F3552391F3951B550BBB2760
S11323D0AA2762177307840738F09F5F5F4F220FA5
S11323E0331F441FAA1FA9F335D00E2E3AF0E0E89C
S11323F032D091505040E695001CCAF72BD0FE2FE6
S113240029D0660F771F881FBB1F26173707480779
S1132410AB07B0E809F0BB0B802DBF01FF27935831
S11324205F4F3AF09E3F510578F00C949D120C9446
S1132430E8125F3FE4F3983ED4F386957795679569
S1132440B795F7959F5FC9F7880F911D9695879566
S113245097F90895E1E0660F771F881FBB1F621785
S113246073078407BA0720F0621B730B840BBA0B43
S1132470EE1F88F7E0950895E89409C097FB3EF4B1
S113248090958095709561957F4F8F4F9F4F9923BD
S1132490A9F0F92F96E9BB279395F695879577953B
S11324A06795B795F111F8CFFAF4BB0F11F460FFFB
S11324B01BC06F5F7F4F8F4F9F4F16C0882311F053
S11324C096E911C0772321F09EE8872F762F05C067
S11324D0662371F096E8862F70E060E02AF09A9502
S11324E0660F771F881FDAF7880F9695879597F9F7
S11324F00895990F0008550FAA0BE0E8FEEF161691
S11325001706E807F907C0F012161306E407F507E3
S113251098F0621B730B840B950B39F40A2661F057
S1132520232B242B252B21F408950A2609F4A140FA
S1132530A6958FEF811D811D089597F99F6780E807
S113254070E060E008959FEF80EC089500240A9401
S11325501616170618060906089500240A9412167A
S11325601306140605060895092E0394000C11F4AD
S1132570882352F0BB0F40F4BF2B11F460FF04C05A
S11325806F5F7F4F8F4F9F4F089557FD9058440FB3
S1132590551F59F05F3F71F04795880F97FB991FBE
S11325A061F09F3F79F0879508951216130614067B
S11325B0551FF2CF4695F1DF08C016161706180608
S11325C0991FF1CF86957105610508940895E894E3
S11325D0BB2766277727CB0197F908950E9401133B
S11325E00C94B4120E94A61238F00E94AD1220F08E
S11325F0952311F00C949D120C94A31211240C94A5
S1132600E8120E94C51270F3959FC1F3950F50E034
S1132610551F629FF001729FBB27F00DB11D639F90
S1132620AA27F00DB11DAA1F649F6627B00DA11D36
S1132630661F829F2227B00DA11D621F739FB00DDC
S1132640A11D621F839FA00D611D221F749F33274C
S1132650A00D611D231F849F600D211D822F762FE5
S11326606A2F11249F5750409AF0F1F088234AF0C2
S1132670EE0FFF1FBB1F661F771F881F915050402E
S1132680A9F79E3F510580F00C949D120C94E8121A
S11326905F3FE4F3983ED4F3869577956795B795B5
S11326A0F795E7959F5FC1F7FE2B880F911D9695CF
S11326B0879597F90895CF93DF938230910510F4AD
S11326C082E090E0E0915D03F0915E0320E030E071
S11326D0C0E0D0E0309711F140815181481759078B
S11326E0C0F04817590761F482819381209719F04B
S11326F09B838A832BC090935E0380935D0326C0E3
S11327002115310519F04217530718F49A01BE0137
S1132710DF01EF010280F381E02DDCCF21153105CB
S113272009F1281B390B2430310590F412968D9150
S11327309C9113976115710521F0FB0193838283AA
S113274004C090935E0380935D03FD01329644C000
S1132750FD01E20FF31F81939193225031092D93D0
S11327603C933AC020915B0330915C03232B41F4EA
S1132770209102013091030130935C0320935B03A9
S113278020910001309101012115310541F42DB74B
S11327903EB74091040150910501241B350BE09193
S11327A05B03F0915C03E217F307A0F42E1B3F0BCD
S11327B02817390778F0AC014E5F5F4F24173507AF
S11327C048F04E0F5F1F50935C0340935B0381936B
S11327D0919302C0E0E0F0E0CF01DF91CF91089542
S11327E00F931F93CF93DF93009709F48CC0FC01E0
S11327F032971382128200915D0310915E030115DA
S1132800110581F420813181820F931F20915B0394
S113281030915C032817390779F5F0935C03E09352
S11328205B0371C0D80140E050E0AE17BF0750F41D
S113283012962D913C911397AD012115310509F1A3
S1132840D901F3CF9D01DA01338322836081718141
S1132850860F971F8217930769F4EC012881398149
S1132860260F371F2E5F3F4F318320838A819B8140
S113287093838283452B29F4F0935E03E0935D03F5
S113288042C01396FC93EE931297ED01499159912E
S11328909E01240F351FE217F30771F480819181A3
S11328A0840F951F029611969C938E938281938137
S11328B013969C938E931297E0E0F0E0D801129661
S11328C08D919C911397009719F0F8018C01F6CF24
S11328D08D919C9198012E5F3F4F820F931F209101
S11328E05B0330915C032817390769F4309729F4A6
S11328F010925E0310925D0302C013821282109341
S11329005C0300935B03DF91CF911F910F910895B6
S1132910A0E0B0E0EEE8F4E10C94E015EC010097DF
S113292021F4CB010E945B13B8C0FC01E60FF71F32
S11329309C0122503109E217F30708F4ACC0D90115
S11329400D911C91119706171707B0F0053011056A
S113295008F49FC0C80104978617970708F499C024
S113296002501109061B170B019311936D937C936D
S1132970CF010E94F0138DC05B01A01AB10A4C0173
S1132980800E911EA0915D03B0915E0340E050E083
S1132990E12CF12C109709F44AC0A815B905D1F51A
S11329A06D907C901197630182E0C80ED11CCA140B
S11329B0DB0480F1A3014A195B096A0182E0C80EB5
S11329C0D11C1296BC9012971396AC91B5E0CB161D
S11329D0D10440F0B282A38351834083D9016D9323
S11329E07C930AC00E5F1F4FC301800F911FF90132
S11329F091838083EB2DFA2FE114F10431F0D70198
S1132A001396FC93EE93129744C0F0935E03E09305
S1132A105D033FC08D919C9111974817590708F4A5
S1132A20AC017D0112960D90BC91A02DB3CF809185
S1132A305B0390915C0388159905E1F446175707E9
S1132A40C8F48091000190910101009741F48DB781
S1132A509EB74091040150910501841B950BE81722
S1132A60F907C8F4F0935C03E0935B03F901718305
S1132A7060830FC0CB010E945B137C01009759F067
S1132A80A801BE010E948915CE010E94F013C7015E
S1132A9004C0CE0102C080E090E0CDB7DEB7EEE026
S1132AA00C94FC151F93FC0199278827BC01E8941A
S1132AB011911032E9F3193010F01E30C8F31B32B3
S1132AC051F01D3249F4689406C00E94C715610F85
S1132AD0711D811D911D119110531A30B0F33EF4F4
S1132AE090958095709561957F4F8F4F9F4F1F9163
S1132AF008959111089581548A5108F4805E855A8D
S1132B0008959111089581568A5108F48052855888
S1132B100895FB01DC0102C001900D924150504028
S1132B20D8F70895FC018191861721F08823D9F7FD
S1132B30992708953197CF010895FB01DC018D9108
S1132B40019080190110D9F3990B0895FB01DC0160
S1132B5001900D920020E1F70895FB015191552356
S1132B60A9F0BF01DC014D9145174111E1F759F47A
S1132B70CD010190002049F04D9140154111C9F358
S1132B80FB014111EFCF81E090E001970895592FA7
S1132B90482F372F262F660F771F881F991F660F20
S1132BA0771F881F991F620F731F841F951F660F5D
S1132BB0771F881F991F08952F923F924F925F921B
S1132BC06F927F928F929F92AF92BF92CF92DF9239
S1132BD0EF92FF920F931F93CF93DF93CDB7DEB79E
S1132BE0CA1BDB0B0FB6F894DEBF0FBECDBF099432
S1132BF02A88398848885F846E847D848C849B8489
S1132C00AA84B984C884DF80EE80FD800C811B8196
S1132C10AA81B981CE0FD11D0FB6F894DEBF0FBEC5
S1132C20CDBFED01089511E0CFE2D1E004C0FE0173
S1132C300E943C112196C033D107C9F7F894FFCF05
S1132C4000005F032000FFFF0000803ECDCC4C3D20
S1132C500000803FB008FFFC0BFC0B0100080040A3
S1132C60000001000400000000F4012C078801D2D8
S1132C70015A0174016601000000004403613A0036
S1132C80736C6176655F616464726573733A004363
S1132C90544300202020000D0A006E616E00696E0E
S1132CA066006F76660000000000020DD20CAC02D4
S10B2CB0990C6E0C760C8A0CE1
S9030000FC
